{
  "contractName": "Calculator",
  "abi": [
    {
      "anonymous": false,
      "inputs": [
        {
          "indexed": false,
          "internalType": "uint256",
          "name": "newValue",
          "type": "uint256"
        }
      ],
      "name": "ValueChanged",
      "type": "event"
    },
    {
      "inputs": [],
      "name": "value",
      "outputs": [
        {
          "internalType": "uint256",
          "name": "",
          "type": "uint256"
        }
      ],
      "stateMutability": "view",
      "type": "function",
      "constant": true
    },
    {
      "inputs": [
        {
          "internalType": "uint256",
          "name": "calcValue",
          "type": "uint256"
        }
      ],
      "name": "set",
      "outputs": [],
      "stateMutability": "nonpayable",
      "type": "function"
    },
    {
      "inputs": [
        {
          "internalType": "uint256",
          "name": "calcValue",
          "type": "uint256"
        }
      ],
      "name": "add",
      "outputs": [],
      "stateMutability": "nonpayable",
      "type": "function"
    },
    {
      "inputs": [
        {
          "internalType": "uint256",
          "name": "calcValue",
          "type": "uint256"
        }
      ],
      "name": "sub",
      "outputs": [],
      "stateMutability": "nonpayable",
      "type": "function"
    },
    {
      "inputs": [
        {
          "internalType": "uint256",
          "name": "calcValue",
          "type": "uint256"
        }
      ],
      "name": "mul",
      "outputs": [],
      "stateMutability": "nonpayable",
      "type": "function"
    },
    {
      "inputs": [
        {
          "internalType": "uint256",
          "name": "calcValue",
          "type": "uint256"
        }
      ],
      "name": "div",
      "outputs": [],
      "stateMutability": "nonpayable",
      "type": "function"
    }
  ],
  "bytecode": "0x608060405234801561000f575f80fd5b506104208061001d5f395ff3fe608060405234801561000f575f80fd5b5060043610610060575f3560e01c80631003e2d214610064578063131e2f181461008057806327ee58a61461009c5780633fa4f245146100b857806360fe47b1146100d6578063eba31cc4146100f2575b5f80fd5b61007e60048036038101906100799190610266565b61010e565b005b61009a60048036038101906100959190610266565b61012d565b005b6100b660048036038101906100b19190610266565b61014c565b005b6100c061016b565b6040516100cd91906102a0565b60405180910390f35b6100f060048036038101906100eb9190610266565b610170565b005b61010c60048036038101906101079190610266565b61017c565b005b61012a610125825f5461019b90919063ffffffff16565b6101b0565b50565b610149610144825f546101f090919063ffffffff16565b6101b0565b50565b610168610163825f5461020590919063ffffffff16565b6101b0565b50565b5f5481565b610179816101b0565b50565b610198610193825f5461021a90919063ffffffff16565b6101b0565b50565b5f81836101a891906102e6565b905092915050565b805f819055507f93fe6d397c74fdf1402a8b72e47b68512f0510d7b98a4bc4cbdf6ac7108b3c59816040516101e591906102a0565b60405180910390a150565b5f81836101fd9190610319565b905092915050565b5f8183610212919061035a565b905092915050565b5f818361022791906103ba565b905092915050565b5f80fd5b5f819050919050565b61024581610233565b811461024f575f80fd5b50565b5f813590506102608161023c565b92915050565b5f6020828403121561027b5761027a61022f565b5b5f61028884828501610252565b91505092915050565b61029a81610233565b82525050565b5f6020820190506102b35f830184610291565b92915050565b7f4e487b71000000000000000000000000000000000000000000000000000000005f52601160045260245ffd5b5f6102f082610233565b91506102fb83610233565b9250828201905080821115610313576103126102b9565b5b92915050565b5f61032382610233565b915061032e83610233565b925082820261033c81610233565b91508282048414831517610353576103526102b9565b5b5092915050565b5f61036482610233565b915061036f83610233565b9250828203905081811115610387576103866102b9565b5b92915050565b7f4e487b71000000000000000000000000000000000000000000000000000000005f52601260045260245ffd5b5f6103c482610233565b91506103cf83610233565b9250826103df576103de61038d565b5b82820490509291505056fea2646970667358221220eaa5b5f214533883c9921d1ec1322e616b017862e93f54371734c7fb86e774e464736f6c63430008140033",
  "immutableReferences": {},
  "source": "// SPDX-License-Identifier: MIT\r\npragma solidity ^0.8.0;\r\n\r\nimport \"@openzeppelin/contracts/utils/math/SafeMath.sol\";\r\n\r\ncontract Calculator {\r\n    using SafeMath for uint;\r\n\r\n    event ValueChanged(uint newValue);\r\n\r\n    uint public value;\r\n\r\n    function set(uint calcValue) external {\r\n        _update(calcValue);\r\n    }\r\n\r\n    function add(uint calcValue) external {\r\n        _update(value.add(calcValue));\r\n    }\r\n\r\n    function sub(uint calcValue) external {\r\n        _update(value.sub(calcValue));\r\n    }\r\n\r\n    function mul(uint calcValue) external {\r\n        _update(value.mul(calcValue));\r\n    }\r\n\r\n    function div(uint calcValue) external {\r\n        _update(value.div(calcValue));\r\n    }\r\n\r\n    function _update(uint newValue) private {\r\n        value = newValue;\r\n\r\n        emit ValueChanged(newValue);\r\n    }\r\n}\r\n",
  "sourcePath": "C:\\Users\\radeg\\Desktop\\portfolio\\web3-calculator\\contracts\\Calculator.sol",
  "compiler": {
    "name": "solc",
    "version": "0.8.20+commit.a1b79de6.Emscripten.clang"
  },
  "schemaVersion": "3.4.14",
  "updatedAt": "2023-09-04T09:44:59.379Z",
  "networkType": "ethereum",
  "devdoc": {
    "kind": "dev",
    "methods": {},
    "version": 1
  },
  "userdoc": {
    "kind": "user",
    "methods": {},
    "version": 1
  }
}